{
  "_format": "hh-sol-artifact-1",
  "contractName": "certificate",
  "sourceName": "contracts/Certificate.sol",
  "abi": [
    {
      "inputs": [
        {
          "internalType": "string",
          "name": "_name",
          "type": "string"
        },
        {
          "internalType": "string",
          "name": "_symbol",
          "type": "string"
        }
      ],
      "stateMutability": "nonpayable",
      "type": "constructor"
    },
    {
      "anonymous": false,
      "inputs": [
        {
          "indexed": true,
          "internalType": "address",
          "name": "owner",
          "type": "address"
        },
        {
          "indexed": true,
          "internalType": "address",
          "name": "approved",
          "type": "address"
        },
        {
          "indexed": true,
          "internalType": "uint256",
          "name": "tokenId",
          "type": "uint256"
        }
      ],
      "name": "Approval",
      "type": "event"
    },
    {
      "anonymous": false,
      "inputs": [
        {
          "indexed": true,
          "internalType": "address",
          "name": "owner",
          "type": "address"
        },
        {
          "indexed": true,
          "internalType": "address",
          "name": "operator",
          "type": "address"
        },
        {
          "indexed": false,
          "internalType": "bool",
          "name": "approved",
          "type": "bool"
        }
      ],
      "name": "ApprovalForAll",
      "type": "event"
    },
    {
      "anonymous": false,
      "inputs": [
        {
          "indexed": true,
          "internalType": "address",
          "name": "from",
          "type": "address"
        },
        {
          "indexed": true,
          "internalType": "address",
          "name": "to",
          "type": "address"
        },
        {
          "indexed": true,
          "internalType": "uint256",
          "name": "tokenId",
          "type": "uint256"
        }
      ],
      "name": "Transfer",
      "type": "event"
    },
    {
      "inputs": [
        {
          "internalType": "address",
          "name": "to",
          "type": "address"
        },
        {
          "internalType": "uint256",
          "name": "tokenId",
          "type": "uint256"
        }
      ],
      "name": "approve",
      "outputs": [],
      "stateMutability": "nonpayable",
      "type": "function"
    },
    {
      "inputs": [
        {
          "internalType": "address",
          "name": "owner",
          "type": "address"
        }
      ],
      "name": "balanceOf",
      "outputs": [
        {
          "internalType": "uint256",
          "name": "",
          "type": "uint256"
        }
      ],
      "stateMutability": "view",
      "type": "function"
    },
    {
      "inputs": [
        {
          "internalType": "address",
          "name": "_owner",
          "type": "address"
        }
      ],
      "name": "blockOwner",
      "outputs": [],
      "stateMutability": "nonpayable",
      "type": "function"
    },
    {
      "inputs": [],
      "name": "blockedOwnerCount",
      "outputs": [
        {
          "internalType": "uint256",
          "name": "",
          "type": "uint256"
        }
      ],
      "stateMutability": "view",
      "type": "function"
    },
    {
      "inputs": [
        {
          "internalType": "address",
          "name": "",
          "type": "address"
        }
      ],
      "name": "blockedOwnerToOwnerId",
      "outputs": [
        {
          "internalType": "uint256",
          "name": "",
          "type": "uint256"
        }
      ],
      "stateMutability": "view",
      "type": "function"
    },
    {
      "inputs": [
        {
          "internalType": "uint256",
          "name": "tokenId",
          "type": "uint256"
        }
      ],
      "name": "getApproved",
      "outputs": [
        {
          "internalType": "address",
          "name": "",
          "type": "address"
        }
      ],
      "stateMutability": "view",
      "type": "function"
    },
    {
      "inputs": [
        {
          "internalType": "string",
          "name": "_tokenURI",
          "type": "string"
        }
      ],
      "name": "getCertificate",
      "outputs": [
        {
          "internalType": "uint256",
          "name": "",
          "type": "uint256"
        }
      ],
      "stateMutability": "payable",
      "type": "function"
    },
    {
      "inputs": [
        {
          "internalType": "address",
          "name": "owner",
          "type": "address"
        },
        {
          "internalType": "address",
          "name": "operator",
          "type": "address"
        }
      ],
      "name": "isApprovedForAll",
      "outputs": [
        {
          "internalType": "bool",
          "name": "",
          "type": "bool"
        }
      ],
      "stateMutability": "view",
      "type": "function"
    },
    {
      "inputs": [],
      "name": "name",
      "outputs": [
        {
          "internalType": "string",
          "name": "",
          "type": "string"
        }
      ],
      "stateMutability": "view",
      "type": "function"
    },
    {
      "inputs": [],
      "name": "ownerCount",
      "outputs": [
        {
          "internalType": "uint256",
          "name": "",
          "type": "uint256"
        }
      ],
      "stateMutability": "view",
      "type": "function"
    },
    {
      "inputs": [
        {
          "internalType": "uint256",
          "name": "tokenId",
          "type": "uint256"
        }
      ],
      "name": "ownerOf",
      "outputs": [
        {
          "internalType": "address",
          "name": "",
          "type": "address"
        }
      ],
      "stateMutability": "view",
      "type": "function"
    },
    {
      "inputs": [
        {
          "internalType": "address",
          "name": "",
          "type": "address"
        }
      ],
      "name": "ownerToOwnerId",
      "outputs": [
        {
          "internalType": "uint256",
          "name": "",
          "type": "uint256"
        }
      ],
      "stateMutability": "view",
      "type": "function"
    },
    {
      "inputs": [
        {
          "internalType": "address",
          "name": "from",
          "type": "address"
        },
        {
          "internalType": "address",
          "name": "to",
          "type": "address"
        },
        {
          "internalType": "uint256",
          "name": "tokenId",
          "type": "uint256"
        }
      ],
      "name": "safeTransferFrom",
      "outputs": [],
      "stateMutability": "nonpayable",
      "type": "function"
    },
    {
      "inputs": [
        {
          "internalType": "address",
          "name": "from",
          "type": "address"
        },
        {
          "internalType": "address",
          "name": "to",
          "type": "address"
        },
        {
          "internalType": "uint256",
          "name": "tokenId",
          "type": "uint256"
        },
        {
          "internalType": "bytes",
          "name": "data",
          "type": "bytes"
        }
      ],
      "name": "safeTransferFrom",
      "outputs": [],
      "stateMutability": "nonpayable",
      "type": "function"
    },
    {
      "inputs": [
        {
          "internalType": "address",
          "name": "operator",
          "type": "address"
        },
        {
          "internalType": "bool",
          "name": "approved",
          "type": "bool"
        }
      ],
      "name": "setApprovalForAll",
      "outputs": [],
      "stateMutability": "nonpayable",
      "type": "function"
    },
    {
      "inputs": [
        {
          "internalType": "address",
          "name": "_newOwner",
          "type": "address"
        }
      ],
      "name": "setOwner",
      "outputs": [],
      "stateMutability": "nonpayable",
      "type": "function"
    },
    {
      "inputs": [
        {
          "internalType": "bytes4",
          "name": "interfaceId",
          "type": "bytes4"
        }
      ],
      "name": "supportsInterface",
      "outputs": [
        {
          "internalType": "bool",
          "name": "",
          "type": "bool"
        }
      ],
      "stateMutability": "view",
      "type": "function"
    },
    {
      "inputs": [],
      "name": "symbol",
      "outputs": [
        {
          "internalType": "string",
          "name": "",
          "type": "string"
        }
      ],
      "stateMutability": "view",
      "type": "function"
    },
    {
      "inputs": [],
      "name": "tokenCounter",
      "outputs": [
        {
          "internalType": "uint256",
          "name": "",
          "type": "uint256"
        }
      ],
      "stateMutability": "view",
      "type": "function"
    },
    {
      "inputs": [
        {
          "internalType": "uint256",
          "name": "tokenId",
          "type": "uint256"
        }
      ],
      "name": "tokenURI",
      "outputs": [
        {
          "internalType": "string",
          "name": "",
          "type": "string"
        }
      ],
      "stateMutability": "view",
      "type": "function"
    },
    {
      "inputs": [
        {
          "internalType": "address",
          "name": "from",
          "type": "address"
        },
        {
          "internalType": "address",
          "name": "to",
          "type": "address"
        },
        {
          "internalType": "uint256",
          "name": "tokenId",
          "type": "uint256"
        }
      ],
      "name": "transferFrom",
      "outputs": [],
      "stateMutability": "nonpayable",
      "type": "function"
    },
    {
      "inputs": [
        {
          "internalType": "uint256",
          "name": "_tokenId",
          "type": "uint256"
        },
        {
          "internalType": "string",
          "name": "_newTokenURI",
          "type": "string"
        }
      ],
      "name": "updateCertMetadata",
      "outputs": [],
      "stateMutability": "nonpayable",
      "type": "function"
    }
  ],
  "bytecode": "0x60806040523480156200001157600080fd5b5060405162003b6738038062003b67833981810160405281019062000037919062000258565b818181600090816200004a919062000528565b5080600190816200005c919062000528565b50505060006007819055506000600a819055506001600881905550600854600960003373ffffffffffffffffffffffffffffffffffffffff1673ffffffffffffffffffffffffffffffffffffffff1681526020019081526020016000208190555050506200060f565b6000604051905090565b600080fd5b600080fd5b600080fd5b600080fd5b6000601f19601f8301169050919050565b7f4e487b7100000000000000000000000000000000000000000000000000000000600052604160045260246000fd5b6200012e82620000e3565b810181811067ffffffffffffffff8211171562000150576200014f620000f4565b5b80604052505050565b600062000165620000c5565b905062000173828262000123565b919050565b600067ffffffffffffffff821115620001965762000195620000f4565b5b620001a182620000e3565b9050602081019050919050565b60005b83811015620001ce578082015181840152602081019050620001b1565b60008484015250505050565b6000620001f1620001eb8462000178565b62000159565b90508281526020810184848401111562000210576200020f620000de565b5b6200021d848285620001ae565b509392505050565b600082601f8301126200023d576200023c620000d9565b5b81516200024f848260208601620001da565b91505092915050565b60008060408385031215620002725762000271620000cf565b5b600083015167ffffffffffffffff811115620002935762000292620000d4565b5b620002a18582860162000225565b925050602083015167ffffffffffffffff811115620002c557620002c4620000d4565b5b620002d38582860162000225565b9150509250929050565b600081519050919050565b7f4e487b7100000000000000000000000000000000000000000000000000000000600052602260045260246000fd5b600060028204905060018216806200033057607f821691505b602082108103620003465762000345620002e8565b5b50919050565b60008190508160005260206000209050919050565b60006020601f8301049050919050565b600082821b905092915050565b600060088302620003b07fffffffffffffffffffffffffffffffffffffffffffffffffffffffffffffffff8262000371565b620003bc868362000371565b95508019841693508086168417925050509392505050565b6000819050919050565b6000819050919050565b60006200040962000403620003fd84620003d4565b620003de565b620003d4565b9050919050565b6000819050919050565b6200042583620003e8565b6200043d620004348262000410565b8484546200037e565b825550505050565b600090565b6200045462000445565b620004618184846200041a565b505050565b5b8181101562000489576200047d6000826200044a565b60018101905062000467565b5050565b601f821115620004d857620004a2816200034c565b620004ad8462000361565b81016020851015620004bd578190505b620004d5620004cc8562000361565b83018262000466565b50505b505050565b600082821c905092915050565b6000620004fd60001984600802620004dd565b1980831691505092915050565b6000620005188383620004ea565b9150826002028217905092915050565b6200053382620002dd565b67ffffffffffffffff8111156200054f576200054e620000f4565b5b6200055b825462000317565b620005688282856200048d565b600060209050601f831160018114620005a057600084156200058b578287015190505b6200059785826200050a565b86555062000607565b601f198416620005b0866200034c565b60005b82811015620005da57848901518255600182019150602085019450602081019050620005b3565b86831015620005fa5784890151620005f6601f891682620004ea565b8355505b6001600288020188555050505b505050505050565b613548806200061f6000396000f3fe6080604052600436106101355760003560e01c80636352211e116100ab578063b88d4fde1161006f578063b88d4fde1461044a578063c87b56dd14610473578063c8daa824146104b0578063d082e381146104d9578063e985e9c514610504578063ed0f2e751461054157610135565b80636352211e1461035157806370a082311461038e57806387d11c69146103cb57806395d89b41146103f6578063a22cb4651461042157610135565b8063128b0a5d116100fd578063128b0a5d1461023357806313af40351461027057806323b872dd146102995780633d8bb322146102c257806342842e0e146102eb5780634a36393d1461031457610135565b806301ffc9a71461013a57806306fdde0314610177578063081812fc146101a2578063095ea7b3146101df5780630db0262214610208575b600080fd5b34801561014657600080fd5b50610161600480360381019061015c9190612139565b610571565b60405161016e9190612181565b60405180910390f35b34801561018357600080fd5b5061018c610653565b604051610199919061222c565b60405180910390f35b3480156101ae57600080fd5b506101c960048036038101906101c49190612284565b6106e5565b6040516101d691906122f2565b60405180910390f35b3480156101eb57600080fd5b5061020660048036038101906102019190612339565b61072b565b005b34801561021457600080fd5b5061021d610842565b60405161022a9190612388565b60405180910390f35b34801561023f57600080fd5b5061025a600480360381019061025591906123a3565b610848565b6040516102679190612388565b60405180910390f35b34801561027c57600080fd5b50610297600480360381019061029291906123a3565b610860565b005b3480156102a557600080fd5b506102c060048036038101906102bb91906123d0565b610a44565b005b3480156102ce57600080fd5b506102e960048036038101906102e49190612558565b610aa4565b005b3480156102f757600080fd5b50610312600480360381019061030d91906123d0565b610acd565b005b34801561032057600080fd5b5061033b600480360381019061033691906123a3565b610aed565b6040516103489190612388565b60405180910390f35b34801561035d57600080fd5b5061037860048036038101906103739190612284565b610b05565b60405161038591906122f2565b60405180910390f35b34801561039a57600080fd5b506103b560048036038101906103b091906123a3565b610b8b565b6040516103c29190612388565b60405180910390f35b3480156103d757600080fd5b506103e0610c42565b6040516103ed9190612388565b60405180910390f35b34801561040257600080fd5b5061040b610c48565b604051610418919061222c565b60405180910390f35b34801561042d57600080fd5b50610448600480360381019061044391906125e0565b610cda565b005b34801561045657600080fd5b50610471600480360381019061046c91906126c1565b610cf0565b005b34801561047f57600080fd5b5061049a60048036038101906104959190612284565b610d52565b6040516104a7919061222c565b60405180910390f35b3480156104bc57600080fd5b506104d760048036038101906104d291906123a3565b610e64565b005b3480156104e557600080fd5b506104ee611034565b6040516104fb9190612388565b60405180910390f35b34801561051057600080fd5b5061052b60048036038101906105269190612744565b61103a565b6040516105389190612181565b60405180910390f35b61055b60048036038101906105569190612784565b6110ce565b6040516105689190612388565b60405180910390f35b60007f80ac58cd000000000000000000000000000000000000000000000000000000007bffffffffffffffffffffffffffffffffffffffffffffffffffffffff1916827bffffffffffffffffffffffffffffffffffffffffffffffffffffffff1916148061063c57507f5b5e139f000000000000000000000000000000000000000000000000000000007bffffffffffffffffffffffffffffffffffffffffffffffffffffffff1916827bffffffffffffffffffffffffffffffffffffffffffffffffffffffff1916145b8061064c575061064b8261110a565b5b9050919050565b606060008054610662906127fc565b80601f016020809104026020016040519081016040528092919081815260200182805461068e906127fc565b80156106db5780601f106106b0576101008083540402835291602001916106db565b820191906000526020600020905b8154815290600101906020018083116106be57829003601f168201915b5050505050905090565b60006106f082611174565b6004600083815260200190815260200160002060009054906101000a900473ffffffffffffffffffffffffffffffffffffffff169050919050565b600061073682610b05565b90508073ffffffffffffffffffffffffffffffffffffffff168373ffffffffffffffffffffffffffffffffffffffff16036107a6576040517f08c379a000000000000000000000000000000000000000000000000000000000815260040161079d9061289f565b60405180910390fd5b8073ffffffffffffffffffffffffffffffffffffffff166107c56111bf565b73ffffffffffffffffffffffffffffffffffffffff1614806107f457506107f3816107ee6111bf565b61103a565b5b610833576040517f08c379a000000000000000000000000000000000000000000000000000000000815260040161082a90612931565b60405180910390fd5b61083d83836111c7565b505050565b60085481565b60096020528060005260406000206000915090505481565b6000600960003373ffffffffffffffffffffffffffffffffffffffff1673ffffffffffffffffffffffffffffffffffffffff16815260200190815260200160002054116108e2576040517f08c379a00000000000000000000000000000000000000000000000000000000081526004016108d9906129c3565b60405180910390fd5b6000600b60003373ffffffffffffffffffffffffffffffffffffffff1673ffffffffffffffffffffffffffffffffffffffff1681526020019081526020016000205414610964576040517f08c379a000000000000000000000000000000000000000000000000000000000815260040161095b90612a2f565b60405180910390fd5b6000600960008373ffffffffffffffffffffffffffffffffffffffff1673ffffffffffffffffffffffffffffffffffffffff16815260200190815260200160002054146109e6576040517f08c379a00000000000000000000000000000000000000000000000000000000081526004016109dd90612a9b565b60405180910390fd5b60016008546109f59190612aea565b600881905550600854600960008373ffffffffffffffffffffffffffffffffffffffff1673ffffffffffffffffffffffffffffffffffffffff1681526020019081526020016000208190555050565b610a55610a4f6111bf565b82611280565b610a94576040517f08c379a0000000000000000000000000000000000000000000000000000000008152600401610a8b90612b90565b60405180910390fd5b610a9f838383611315565b505050565b600082118015610ab657506007548211155b610abf57600080fd5b610ac9828261160e565b5050565b610ae883838360405180602001604052806000815250610cf0565b505050565b600b6020528060005260406000206000915090505481565b600080610b118361167b565b9050600073ffffffffffffffffffffffffffffffffffffffff168173ffffffffffffffffffffffffffffffffffffffff1603610b82576040517f08c379a0000000000000000000000000000000000000000000000000000000008152600401610b7990612bfc565b60405180910390fd5b80915050919050565b60008073ffffffffffffffffffffffffffffffffffffffff168273ffffffffffffffffffffffffffffffffffffffff1603610bfb576040517f08c379a0000000000000000000000000000000000000000000000000000000008152600401610bf290612c8e565b60405180910390fd5b600360008373ffffffffffffffffffffffffffffffffffffffff1673ffffffffffffffffffffffffffffffffffffffff168152602001908152602001600020549050919050565b600a5481565b606060018054610c57906127fc565b80601f0160208091040260200160405190810160405280929190818152602001828054610c83906127fc565b8015610cd05780601f10610ca557610100808354040283529160200191610cd0565b820191906000526020600020905b815481529060010190602001808311610cb357829003601f168201915b5050505050905090565b610cec610ce56111bf565b83836116b8565b5050565b610d01610cfb6111bf565b83611280565b610d40576040517f08c379a0000000000000000000000000000000000000000000000000000000008152600401610d3790612b90565b60405180910390fd5b610d4c84848484611824565b50505050565b6060610d5d82611174565b6000600660008481526020019081526020016000208054610d7d906127fc565b80601f0160208091040260200160405190810160405280929190818152602001828054610da9906127fc565b8015610df65780601f10610dcb57610100808354040283529160200191610df6565b820191906000526020600020905b815481529060010190602001808311610dd957829003601f168201915b505050505090506000610e07611880565b90506000815103610e1c578192505050610e5f565b600082511115610e51578082604051602001610e39929190612cea565b60405160208183030381529060405292505050610e5f565b610e5a84611897565b925050505b919050565b6000600960003373ffffffffffffffffffffffffffffffffffffffff1673ffffffffffffffffffffffffffffffffffffffff1681526020019081526020016000205411610ee6576040517f08c379a0000000000000000000000000000000000000000000000000000000008152600401610edd906129c3565b60405180910390fd5b6000600b60003373ffffffffffffffffffffffffffffffffffffffff1673ffffffffffffffffffffffffffffffffffffffff1681526020019081526020016000205414610f68576040517f08c379a0000000000000000000000000000000000000000000000000000000008152600401610f5f90612a2f565b60405180910390fd5b8073ffffffffffffffffffffffffffffffffffffffff163373ffffffffffffffffffffffffffffffffffffffff1603610fd6576040517f08c379a0000000000000000000000000000000000000000000000000000000008152600401610fcd90612d5a565b60405180910390fd5b6001600a54610fe59190612aea565b600a81905550600a54600b60008373ffffffffffffffffffffffffffffffffffffffff1673ffffffffffffffffffffffffffffffffffffffff1681526020019081526020016000208190555050565b60075481565b6000600560008473ffffffffffffffffffffffffffffffffffffffff1673ffffffffffffffffffffffffffffffffffffffff16815260200190815260200160002060008373ffffffffffffffffffffffffffffffffffffffff1673ffffffffffffffffffffffffffffffffffffffff16815260200190815260200160002060009054906101000a900460ff16905092915050565b6000600760008154809291906110e390612d7a565b91905055506110f4336007546118ff565b6111006007548361160e565b6007549050919050565b60007f01ffc9a7000000000000000000000000000000000000000000000000000000007bffffffffffffffffffffffffffffffffffffffffffffffffffffffff1916827bffffffffffffffffffffffffffffffffffffffffffffffffffffffff1916149050919050565b61117d8161191d565b6111bc576040517f08c379a00000000000000000000000000000000000000000000000000000000081526004016111b390612bfc565b60405180910390fd5b50565b600033905090565b816004600083815260200190815260200160002060006101000a81548173ffffffffffffffffffffffffffffffffffffffff021916908373ffffffffffffffffffffffffffffffffffffffff160217905550808273ffffffffffffffffffffffffffffffffffffffff1661123a83610b05565b73ffffffffffffffffffffffffffffffffffffffff167f8c5be1e5ebec7d5bd14f71427d1e84f3dd0314c0f7b2291e5b200ac8c7c3b92560405160405180910390a45050565b60008061128c83610b05565b90508073ffffffffffffffffffffffffffffffffffffffff168473ffffffffffffffffffffffffffffffffffffffff1614806112ce57506112cd818561103a565b5b8061130c57508373ffffffffffffffffffffffffffffffffffffffff166112f4846106e5565b73ffffffffffffffffffffffffffffffffffffffff16145b91505092915050565b8273ffffffffffffffffffffffffffffffffffffffff1661133582610b05565b73ffffffffffffffffffffffffffffffffffffffff161461138b576040517f08c379a000000000000000000000000000000000000000000000000000000000815260040161138290612e34565b60405180910390fd5b600073ffffffffffffffffffffffffffffffffffffffff168273ffffffffffffffffffffffffffffffffffffffff16036113fa576040517f08c379a00000000000000000000000000000000000000000000000000000000081526004016113f190612ec6565b60405180910390fd5b611407838383600161195e565b8273ffffffffffffffffffffffffffffffffffffffff1661142782610b05565b73ffffffffffffffffffffffffffffffffffffffff161461147d576040517f08c379a000000000000000000000000000000000000000000000000000000000815260040161147490612e34565b60405180910390fd5b6004600082815260200190815260200160002060006101000a81549073ffffffffffffffffffffffffffffffffffffffff02191690556001600360008573ffffffffffffffffffffffffffffffffffffffff1673ffffffffffffffffffffffffffffffffffffffff168152602001908152602001600020600082825403925050819055506001600360008473ffffffffffffffffffffffffffffffffffffffff1673ffffffffffffffffffffffffffffffffffffffff16815260200190815260200160002060008282540192505081905550816002600083815260200190815260200160002060006101000a81548173ffffffffffffffffffffffffffffffffffffffff021916908373ffffffffffffffffffffffffffffffffffffffff160217905550808273ffffffffffffffffffffffffffffffffffffffff168473ffffffffffffffffffffffffffffffffffffffff167fddf252ad1be2c89b69c2b068fc378daa952ba7f163c4a11628f55a4df523b3ef60405160405180910390a46116098383836001611a84565b505050565b6116178261191d565b611656576040517f08c379a000000000000000000000000000000000000000000000000000000000815260040161164d90612f58565b60405180910390fd5b806006600084815260200190815260200160002090816116769190613124565b505050565b60006002600083815260200190815260200160002060009054906101000a900473ffffffffffffffffffffffffffffffffffffffff169050919050565b8173ffffffffffffffffffffffffffffffffffffffff168373ffffffffffffffffffffffffffffffffffffffff1603611726576040517f08c379a000000000000000000000000000000000000000000000000000000000815260040161171d90613242565b60405180910390fd5b80600560008573ffffffffffffffffffffffffffffffffffffffff1673ffffffffffffffffffffffffffffffffffffffff16815260200190815260200160002060008473ffffffffffffffffffffffffffffffffffffffff1673ffffffffffffffffffffffffffffffffffffffff16815260200190815260200160002060006101000a81548160ff0219169083151502179055508173ffffffffffffffffffffffffffffffffffffffff168373ffffffffffffffffffffffffffffffffffffffff167f17307eab39ab6107e8899845ad3d59bd9653f200f220920489ca2b5937696c31836040516118179190612181565b60405180910390a3505050565b61182f848484611315565b61183b84848484611a8a565b61187a576040517f08c379a0000000000000000000000000000000000000000000000000000000008152600401611871906132d4565b60405180910390fd5b50505050565b606060405180602001604052806000815250905090565b60606118a282611174565b60006118ac611880565b905060008151116118cc57604051806020016040528060008152506118f7565b806118d684611c11565b6040516020016118e7929190612cea565b6040516020818303038152906040525b915050919050565b611919828260405180602001604052806000815250611cdf565b5050565b60008073ffffffffffffffffffffffffffffffffffffffff1661193f8361167b565b73ffffffffffffffffffffffffffffffffffffffff1614159050919050565b6001811115611a7e57600073ffffffffffffffffffffffffffffffffffffffff168473ffffffffffffffffffffffffffffffffffffffff16146119f25780600360008673ffffffffffffffffffffffffffffffffffffffff1673ffffffffffffffffffffffffffffffffffffffff16815260200190815260200160002060008282546119ea91906132f4565b925050819055505b600073ffffffffffffffffffffffffffffffffffffffff168373ffffffffffffffffffffffffffffffffffffffff1614611a7d5780600360008573ffffffffffffffffffffffffffffffffffffffff1673ffffffffffffffffffffffffffffffffffffffff1681526020019081526020016000206000828254611a759190612aea565b925050819055505b5b50505050565b50505050565b6000611aab8473ffffffffffffffffffffffffffffffffffffffff16611d3a565b15611c04578373ffffffffffffffffffffffffffffffffffffffff1663150b7a02611ad46111bf565b8786866040518563ffffffff1660e01b8152600401611af6949392919061337d565b6020604051808303816000875af1925050508015611b3257506040513d601f19601f82011682018060405250810190611b2f91906133de565b60015b611bb4573d8060008114611b62576040519150601f19603f3d011682016040523d82523d6000602084013e611b67565b606091505b506000815103611bac576040517f08c379a0000000000000000000000000000000000000000000000000000000008152600401611ba3906132d4565b60405180910390fd5b805181602001fd5b63150b7a0260e01b7bffffffffffffffffffffffffffffffffffffffffffffffffffffffff1916817bffffffffffffffffffffffffffffffffffffffffffffffffffffffff191614915050611c09565b600190505b949350505050565b606060006001611c2084611d5d565b01905060008167ffffffffffffffff811115611c3f57611c3e61242d565b5b6040519080825280601f01601f191660200182016040528015611c715781602001600182028036833780820191505090505b509050600082602001820190505b600115611cd4578080600190039150507f3031323334353637383961626364656600000000000000000000000000000000600a86061a8153600a8581611cc857611cc761340b565b5b04945060008503611c7f575b819350505050919050565b611ce98383611eb0565b611cf66000848484611a8a565b611d35576040517f08c379a0000000000000000000000000000000000000000000000000000000008152600401611d2c906132d4565b60405180910390fd5b505050565b6000808273ffffffffffffffffffffffffffffffffffffffff163b119050919050565b600080600090507a184f03e93ff9f4daa797ed6e38ed64bf6a1f0100000000000000008310611dbb577a184f03e93ff9f4daa797ed6e38ed64bf6a1f0100000000000000008381611db157611db061340b565b5b0492506040810190505b6d04ee2d6d415b85acef81000000008310611df8576d04ee2d6d415b85acef81000000008381611dee57611ded61340b565b5b0492506020810190505b662386f26fc100008310611e2757662386f26fc100008381611e1d57611e1c61340b565b5b0492506010810190505b6305f5e1008310611e50576305f5e1008381611e4657611e4561340b565b5b0492506008810190505b6127108310611e75576127108381611e6b57611e6a61340b565b5b0492506004810190505b60648310611e985760648381611e8e57611e8d61340b565b5b0492506002810190505b600a8310611ea7576001810190505b80915050919050565b600073ffffffffffffffffffffffffffffffffffffffff168273ffffffffffffffffffffffffffffffffffffffff1603611f1f576040517f08c379a0000000000000000000000000000000000000000000000000000000008152600401611f1690613486565b60405180910390fd5b611f288161191d565b15611f68576040517f08c379a0000000000000000000000000000000000000000000000000000000008152600401611f5f906134f2565b60405180910390fd5b611f7660008383600161195e565b611f7f8161191d565b15611fbf576040517f08c379a0000000000000000000000000000000000000000000000000000000008152600401611fb6906134f2565b60405180910390fd5b6001600360008473ffffffffffffffffffffffffffffffffffffffff1673ffffffffffffffffffffffffffffffffffffffff16815260200190815260200160002060008282540192505081905550816002600083815260200190815260200160002060006101000a81548173ffffffffffffffffffffffffffffffffffffffff021916908373ffffffffffffffffffffffffffffffffffffffff160217905550808273ffffffffffffffffffffffffffffffffffffffff16600073ffffffffffffffffffffffffffffffffffffffff167fddf252ad1be2c89b69c2b068fc378daa952ba7f163c4a11628f55a4df523b3ef60405160405180910390a46120c9600083836001611a84565b5050565b6000604051905090565b600080fd5b600080fd5b60007fffffffff0000000000000000000000000000000000000000000000000000000082169050919050565b612116816120e1565b811461212157600080fd5b50565b6000813590506121338161210d565b92915050565b60006020828403121561214f5761214e6120d7565b5b600061215d84828501612124565b91505092915050565b60008115159050919050565b61217b81612166565b82525050565b60006020820190506121966000830184612172565b92915050565b600081519050919050565b600082825260208201905092915050565b60005b838110156121d65780820151818401526020810190506121bb565b60008484015250505050565b6000601f19601f8301169050919050565b60006121fe8261219c565b61220881856121a7565b93506122188185602086016121b8565b612221816121e2565b840191505092915050565b6000602082019050818103600083015261224681846121f3565b905092915050565b6000819050919050565b6122618161224e565b811461226c57600080fd5b50565b60008135905061227e81612258565b92915050565b60006020828403121561229a576122996120d7565b5b60006122a88482850161226f565b91505092915050565b600073ffffffffffffffffffffffffffffffffffffffff82169050919050565b60006122dc826122b1565b9050919050565b6122ec816122d1565b82525050565b600060208201905061230760008301846122e3565b92915050565b612316816122d1565b811461232157600080fd5b50565b6000813590506123338161230d565b92915050565b600080604083850312156123505761234f6120d7565b5b600061235e85828601612324565b925050602061236f8582860161226f565b9150509250929050565b6123828161224e565b82525050565b600060208201905061239d6000830184612379565b92915050565b6000602082840312156123b9576123b86120d7565b5b60006123c784828501612324565b91505092915050565b6000806000606084860312156123e9576123e86120d7565b5b60006123f786828701612324565b935050602061240886828701612324565b92505060406124198682870161226f565b9150509250925092565b600080fd5b600080fd5b7f4e487b7100000000000000000000000000000000000000000000000000000000600052604160045260246000fd5b612465826121e2565b810181811067ffffffffffffffff821117156124845761248361242d565b5b80604052505050565b60006124976120cd565b90506124a3828261245c565b919050565b600067ffffffffffffffff8211156124c3576124c261242d565b5b6124cc826121e2565b9050602081019050919050565b82818337600083830152505050565b60006124fb6124f6846124a8565b61248d565b90508281526020810184848401111561251757612516612428565b5b6125228482856124d9565b509392505050565b600082601f83011261253f5761253e612423565b5b813561254f8482602086016124e8565b91505092915050565b6000806040838503121561256f5761256e6120d7565b5b600061257d8582860161226f565b925050602083013567ffffffffffffffff81111561259e5761259d6120dc565b5b6125aa8582860161252a565b9150509250929050565b6125bd81612166565b81146125c857600080fd5b50565b6000813590506125da816125b4565b92915050565b600080604083850312156125f7576125f66120d7565b5b600061260585828601612324565b9250506020612616858286016125cb565b9150509250929050565b600067ffffffffffffffff82111561263b5761263a61242d565b5b612644826121e2565b9050602081019050919050565b600061266461265f84612620565b61248d565b9050828152602081018484840111156126805761267f612428565b5b61268b8482856124d9565b509392505050565b600082601f8301126126a8576126a7612423565b5b81356126b8848260208601612651565b91505092915050565b600080600080608085870312156126db576126da6120d7565b5b60006126e987828801612324565b94505060206126fa87828801612324565b935050604061270b8782880161226f565b925050606085013567ffffffffffffffff81111561272c5761272b6120dc565b5b61273887828801612693565b91505092959194509250565b6000806040838503121561275b5761275a6120d7565b5b600061276985828601612324565b925050602061277a85828601612324565b9150509250929050565b60006020828403121561279a576127996120d7565b5b600082013567ffffffffffffffff8111156127b8576127b76120dc565b5b6127c48482850161252a565b91505092915050565b7f4e487b7100000000000000000000000000000000000000000000000000000000600052602260045260246000fd5b6000600282049050600182168061281457607f821691505b602082108103612827576128266127cd565b5b50919050565b7f4552433732313a20617070726f76616c20746f2063757272656e74206f776e6560008201527f7200000000000000000000000000000000000000000000000000000000000000602082015250565b60006128896021836121a7565b91506128948261282d565b604082019050919050565b600060208201905081810360008301526128b88161287c565b9050919050565b7f4552433732313a20617070726f76652063616c6c6572206973206e6f7420746f60008201527f6b656e206f776e6572206f7220617070726f76656420666f7220616c6c000000602082015250565b600061291b603d836121a7565b9150612926826128bf565b604082019050919050565b6000602082019050818103600083015261294a8161290e565b9050919050565b7f4f6e6c79206f776e65722063616e2063616c6c20746869732066756e6374696f60008201527f6e2e000000000000000000000000000000000000000000000000000000000000602082015250565b60006129ad6022836121a7565b91506129b882612951565b604082019050919050565b600060208201905081810360008301526129dc816129a0565b9050919050565b7f596f752068617665206265656e20626c6f636b65642e00000000000000000000600082015250565b6000612a196016836121a7565b9150612a24826129e3565b602082019050919050565b60006020820190508181036000830152612a4881612a0c565b9050919050565b7f4f776e657220616c72656164792061646465642e000000000000000000000000600082015250565b6000612a856014836121a7565b9150612a9082612a4f565b602082019050919050565b60006020820190508181036000830152612ab481612a78565b9050919050565b7f4e487b7100000000000000000000000000000000000000000000000000000000600052601160045260246000fd5b6000612af58261224e565b9150612b008361224e565b9250828201905080821115612b1857612b17612abb565b5b92915050565b7f4552433732313a2063616c6c6572206973206e6f7420746f6b656e206f776e6560008201527f72206f7220617070726f76656400000000000000000000000000000000000000602082015250565b6000612b7a602d836121a7565b9150612b8582612b1e565b604082019050919050565b60006020820190508181036000830152612ba981612b6d565b9050919050565b7f4552433732313a20696e76616c696420746f6b656e2049440000000000000000600082015250565b6000612be66018836121a7565b9150612bf182612bb0565b602082019050919050565b60006020820190508181036000830152612c1581612bd9565b9050919050565b7f4552433732313a2061646472657373207a65726f206973206e6f74206120766160008201527f6c6964206f776e65720000000000000000000000000000000000000000000000602082015250565b6000612c786029836121a7565b9150612c8382612c1c565b604082019050919050565b60006020820190508181036000830152612ca781612c6b565b9050919050565b600081905092915050565b6000612cc48261219c565b612cce8185612cae565b9350612cde8185602086016121b8565b80840191505092915050565b6000612cf68285612cb9565b9150612d028284612cb9565b91508190509392505050565b7f596f752063616e6e6f7420626c6f636b20796f757273656c6600000000000000600082015250565b6000612d446019836121a7565b9150612d4f82612d0e565b602082019050919050565b60006020820190508181036000830152612d7381612d37565b9050919050565b6000612d858261224e565b91507fffffffffffffffffffffffffffffffffffffffffffffffffffffffffffffffff8203612db757612db6612abb565b5b600182019050919050565b7f4552433732313a207472616e736665722066726f6d20696e636f72726563742060008201527f6f776e6572000000000000000000000000000000000000000000000000000000602082015250565b6000612e1e6025836121a7565b9150612e2982612dc2565b604082019050919050565b60006020820190508181036000830152612e4d81612e11565b9050919050565b7f4552433732313a207472616e7366657220746f20746865207a65726f2061646460008201527f7265737300000000000000000000000000000000000000000000000000000000602082015250565b6000612eb06024836121a7565b9150612ebb82612e54565b604082019050919050565b60006020820190508181036000830152612edf81612ea3565b9050919050565b7f45524337323155524953746f726167653a2055524920736574206f66206e6f6e60008201527f6578697374656e7420746f6b656e000000000000000000000000000000000000602082015250565b6000612f42602e836121a7565b9150612f4d82612ee6565b604082019050919050565b60006020820190508181036000830152612f7181612f35565b9050919050565b60008190508160005260206000209050919050565b60006020601f8301049050919050565b600082821b905092915050565b600060088302612fda7fffffffffffffffffffffffffffffffffffffffffffffffffffffffffffffffff82612f9d565b612fe48683612f9d565b95508019841693508086168417925050509392505050565b6000819050919050565b600061302161301c6130178461224e565b612ffc565b61224e565b9050919050565b6000819050919050565b61303b83613006565b61304f61304782613028565b848454612faa565b825550505050565b600090565b613064613057565b61306f818484613032565b505050565b5b818110156130935761308860008261305c565b600181019050613075565b5050565b601f8211156130d8576130a981612f78565b6130b284612f8d565b810160208510156130c1578190505b6130d56130cd85612f8d565b830182613074565b50505b505050565b600082821c905092915050565b60006130fb600019846008026130dd565b1980831691505092915050565b600061311483836130ea565b9150826002028217905092915050565b61312d8261219c565b67ffffffffffffffff8111156131465761314561242d565b5b61315082546127fc565b61315b828285613097565b600060209050601f83116001811461318e576000841561317c578287015190505b6131868582613108565b8655506131ee565b601f19841661319c86612f78565b60005b828110156131c45784890151825560018201915060208501945060208101905061319f565b868310156131e157848901516131dd601f8916826130ea565b8355505b6001600288020188555050505b505050505050565b7f4552433732313a20617070726f766520746f2063616c6c657200000000000000600082015250565b600061322c6019836121a7565b9150613237826131f6565b602082019050919050565b6000602082019050818103600083015261325b8161321f565b9050919050565b7f4552433732313a207472616e7366657220746f206e6f6e20455243373231526560008201527f63656976657220696d706c656d656e7465720000000000000000000000000000602082015250565b60006132be6032836121a7565b91506132c982613262565b604082019050919050565b600060208201905081810360008301526132ed816132b1565b9050919050565b60006132ff8261224e565b915061330a8361224e565b925082820390508181111561332257613321612abb565b5b92915050565b600081519050919050565b600082825260208201905092915050565b600061334f82613328565b6133598185613333565b93506133698185602086016121b8565b613372816121e2565b840191505092915050565b600060808201905061339260008301876122e3565b61339f60208301866122e3565b6133ac6040830185612379565b81810360608301526133be8184613344565b905095945050505050565b6000815190506133d88161210d565b92915050565b6000602082840312156133f4576133f36120d7565b5b6000613402848285016133c9565b91505092915050565b7f4e487b7100000000000000000000000000000000000000000000000000000000600052601260045260246000fd5b7f4552433732313a206d696e7420746f20746865207a65726f2061646472657373600082015250565b60006134706020836121a7565b915061347b8261343a565b602082019050919050565b6000602082019050818103600083015261349f81613463565b9050919050565b7f4552433732313a20746f6b656e20616c7265616479206d696e74656400000000600082015250565b60006134dc601c836121a7565b91506134e7826134a6565b602082019050919050565b6000602082019050818103600083015261350b816134cf565b905091905056fea264697066735822122068125ca116b3f50b716f66a04d962ca2b4ffb476867b3886b98210909ec1515e64736f6c63430008110033",
  "linkReferences": {},
  "deployedLinkReferences": {}
}